:100000000C94A3000C94CB000C94CB000C94CB006C
:100010000C94CB000C94CB000C94CB000C94CB0034
:100020000C94CB000C94CB000C94CB000C943908AE
:100030000C94CB000C94CB000C94CB000C94CB0014
:100040000C9497070C94CB000C9407080C94E107D0
:100050000C94CB000C94CB000C94CB000C94CB00F4
:100060000C94CB000C94CB0007634236B79BD8A707
:100070001A39685618AEBAAB558C1D3CB7CC5763CD
:10008000BD6DEDFD753EF6177231BF000000803F7B
:1000900008000000BE922449123EABAAAA2ABECD97
:1000A000CCCC4C3E00000080BEABAAAAAA3E000009
:1000B0000000BF000000803F000000000008417801
:1000C000D3BB4387D1133D190E3CC3BD4282AD2B38
:1000D0003E68EC8276BED98FE1A93E4C80EFFFBE30
:1000E00001C4FF7F3F00000000000000000024006A
:1000F00027002A0000000000250028002B00000037
:1001000000080002010000030407000000000000D6
:10011000000000000000230026002900040404045D
:1001200004040404020202020202030303030303A1
:10013000010204081020408001020408102001027E
:1001400004081020F50811241FBECFEFD8E0DEBF51
:10015000CDBF13E0A0E0B1E0E0EFF2E202C0059015
:100160000D92A834B107D9F724E0A8E4B3E001C0A8
:100170001D92AB34B207E1F710E0C3EAD0E004C04F
:100180002197FE010E947011C23AD107C9F70E945F
:10019000B7090C9476110C9400008F929F92AF9245
:1001A000BF92FF920F931F93CF93DF93F0901404AD
:1001B0002BE02F1508F44CC02091160408E512E03E
:1001C000021B110927FD1395000F111F000F111FAE
:1001D00020911504C8E8D0E0C21BD10927FDD395B2
:1001E000CC0FDD1FCC0FDD1F4E010D2E000CAA0819
:1001F000BB089801012E000C440B550B2819390936
:100200004A095B09DC010E946A0D24EB30E040E002
:1002100050E00E94400D820E931EA41EB51E8C1647
:100220009D062CF0E801801691060CF4E40122975B
:10023000CC0FDD1F2FB7F8948F2D90E0FC01EE0F4F
:10024000FF1FE80FF91FE151FC4FD283C1832FBF7D
:10025000DF91CF911F910F91FF90BF90AF909F9032
:100260008F900895CF92DF92EF92FF92CF93DF931A
:10027000B0912704A0E08111AB2F8091280490E079
:10028000880F991FAC014E5E5E4FC0902D04D09038
:100290002E04E0902F04F090300430E020E0FA01CA
:1002A000C591D491E881B90190E080E0EB23EA1395
:1002B0000AC02F5F3F4F6C157D058E059F0578F3B3
:1002C0006FEF7FEFCB01DF91CF91FF90EF90DF9049
:1002D000CF90089590E0FC01E250FF4F2491FC0183
:1002E000E05DFE4F3491FC01E45EFE4FE491EE23AD
:1002F000C9F0222339F0233001F1A8F4213019F19B
:10030000223029F1F0E0EE0FFF1FEC50FF4FA591D6
:10031000B4918FB7F894EC91611126C030953E23CB
:100320003C938FBF08952730A9F02830C9F02430BE
:1003300049F7809180008F7D03C0809180008F7786
:1003400080938000DFCF84B58F7784BDDBCF84B509
:100350008F7DFBCF8091B0008F778093B000D2CF9C
:100360008091B0008F7DF9CF3E2BDACFCF93DF9312
:1003700090E0FC01E05DFE4F2491845E9E4FFC0105
:1003800084918823D1F090E0880F991FFC01E651F9
:10039000FF4FA591B491FC01EC50FF4FC591D49152
:1003A000623071F49FB7F8943C91822F809583233B
:1003B0008C93E8812E2B28839FBFDF91CF910895E6
:1003C0008FB7F894EC912E2B2C938FBFF6CF8E30F5
:1003D00008F08E508770806480937C0080917A0052
:1003E000806480937A0080917A0086FDFCCF8091B2
:1003F00078009091790008953FB7F89480914A036E
:1004000090914B03A0914C03B0914D0326B5A89B4E
:1004100005C02F3F19F00196A11DB11D3FBFBA2F96
:10042000A92F982F8827BC01CD01620F711D811D56
:10043000911D42E0660F771F881F991F4A95D1F7DB
:1004400008958F929F92AF92BF92CF92DF92EF92D8
:10045000FF924B015C010E94FC016B017C010E9438
:10046000FC016C197D098E099F09683E7340810566
:100470009105A8F321E0821A9108A108B10888EE3D
:10048000C80E83E0D81EE11CF11C81149104A10464
:10049000B10429F7FF90EF90DF90CF90BF90AF901D
:1004A0009F908F900895CF92DF92EF92FF920F93DB
:1004B0001F93CF93DF93CDB7DEB7C054D1400FB6B3
:1004C000F894DEBF0FBECDBF2FB7F89480914E03D6
:1004D00090914F03A0915003B09151032FBF4091D1
:1004E000290450912A0460912B0470912C048C01F2
:1004F0009D01041B150B260B370BB901A801403DCC
:1005000057406105710590F480913104C05CDE4F65
:100510000FB6F894DEBF0FBECDBFDF91CF911F9114
:100520000F91FF90EF90DF90CF9008958093290472
:1005300090932A04A0932B04B0932C0410922404CB
:10054000109223041092220410922104109220048D
:1005500062E0809125040E94B60161E070E080E0D5
:1005600090E00E94210261E0809125040E94B60182
:1005700060E0809125040E946A01809126048551E3
:10058000823020F58BE291E10197F1F762E08091F2
:1005900025040E94B6018091320490E082309105DA
:1005A00038F0880F991F880F991F05970197F1F769
:1005B000F89480E00E9432016F3F7F4F8F4F9F4F32
:1005C00061F410923104789480E0A0CF64E170E08F
:1005D00080E090E00E942102D9CF81E00E943201A8
:1005E0006F3F7F4F8F4F9F4F61F38E010F5F1F4F04
:1005F0006E018FEBC81A8EEFD80A780180E00E9456
:100600003201F701608371838283938381E00E94CA
:100610003201F7016483758386839783F8E0EF0ED8
:10062000F11CEC14FD0451F7789430E020E0F8015F
:10063000C080D180E280F3804481558166817781DA
:10064000FFEFCF16DF06EF06FF0631F04F3F8FEFCB
:1006500058076807780719F410923104B5CFF901EB
:1006600083E0F595E7958A95E1F7E05EFB4F8081A1
:10067000880FC416D506E606F70610F180832F5FB3
:100680003F4F085F1F4F2832310589F640912404FF
:100690002091200480912104280F3327331F80915B
:1006A0002204280F311D80912304820F932F911D66
:1006B00099274817190681F681E08093310426CFE7
:1006C0008160DCCFDC01ED91FC910190F081E02DA7
:1006D0000994AF92BF92CF92DF92EF92FF920F9365
:1006E0001F93CF93DF936C017B018B01040F151FC8
:1006F000EB015E01AE18BF08C017D10759F0699130
:10070000D601ED91FC910190F081E02DC601099593
:10071000892B79F7C501DF91CF911F910F91FF9040
:10072000EF90DF90CF90BF90AF900895FC01538D74
:10073000448D252F30E0842F90E0821B930B5417BB
:1007400010F0CF96089501970895FC01918D828D48
:10075000981761F0A28DAE0FBF2FB11D5D968C91E1
:10076000928D9F5F9F73928F90E008958FEF9FEF20
:100770000895FC01918D828D981731F0828DE80FDC
:10078000F11D858D90E008958FEF9FEF0895FC0196
:10079000918D228D892F90E0805C9F4F821B910963
:1007A0008F739927089582E593E00E94C70321E0A3
:1007B000892B09F420E0822F089580E090E0892BB6
:1007C00029F00E94D30381110C9400000895FC01CC
:1007D000A48DA80FB92FB11DA35ABF4F2C91848DA2
:1007E00090E001968F739927848FA689B7892C93FF
:1007F000A089B1898C91837080648C93938D848D52
:10080000981306C00288F389E02D80818F7D808354
:100810000895EF92FF920F931F93CF93DF93EC0114
:1008200081E0888F9B8D8C8D98131AC0E889F98997
:10083000808185FF15C09FB7F894EE89FF8960839A
:10084000E889F98980818370806480839FBF81E01B
:1008500090E0DF91CF911F910F91FF90EF9008955D
:10086000F62E0B8D10E00F5F1F4F0F731127E02E38
:100870008C8D8E110CC00FB607FCFACFE889F98970
:10088000808185FFF5CFCE010E94E703F1CFEB8D8C
:10089000EC0FFD2FF11DE35AFF4FF0829FB7F89444
:1008A0000B8FEA89FB8980818062CFCFCF93DF9362
:1008B000EC01888D8823B9F0AA89BB89E889F98978
:1008C0008C9185FD03C0808186FD0DC00FB607FCAD
:1008D000F7CF8C9185FFF2CF808185FFEDCFCE01E0
:1008E0000E94E703E9CFDF91CF910895089590E04A
:1008F00080E00895CF93DF93EC0160E08E810E9449
:100900006A0161E08E810E946A0160E08E810E942E
:100910006A018BE891E00197F1F7DF91CF9108959B
:10092000CF92DF92EF92FF920F931F93CF93DF93BB
:100930006C017C0187E0E80EF11CD0E0C0E0062FDE
:1009400010E0B8010C2E02C0759567950A94E2F785
:100950006170F70181917F010E946A012196C43084
:10096000D10579F7C601DF91CF911F910F91FF90CB
:10097000EF90DF90CF900C947A04CF92DF92EF92B9
:10098000FF920F931F93CF93DF93EC01F62E642F0A
:100990008C810E946A018D818F3F19F060E00E9476
:1009A0006A010F2D10E08F8584FF25C06E0187E05E
:1009B000C80ED11CF12CE12CB8010E2C02C075958B
:1009C00067950A94E2F76170F60181916F010E94C8
:1009D0006A01FFEFEF1AFF0A88E0E816F10461F7F9
:1009E000CE01DF91CF911F910F91FF90EF90DF909B
:1009F000CF900C947A04B80184E0759567958A9538
:100A0000E1F7CE010E9490046F2DCE01DF91CF91CE
:100A10001F910F91FF90EF90DF90CF900C94900476
:100A200040E0682F83E394E00C94BD0481E00E94D1
:100A300010058BE39FE10197F1F70895CF93DF93C2
:100A4000823029F4909142049860909342048093FC
:100A500046041092470480E48093480480E1809328
:100A6000490480E580934A0461E0809137040E9444
:100A7000B601809138048F3F19F061E00E94B60101
:100A800061E0809139040E94B601C3E3D4E09E0185
:100A9000235334408091420484FD0BC084E090E0F5
:100AA00021962817390744F461E08E810E94B6012F
:100AB000EECF88E090E0F4CF8BE39DE00197F1F773
:100AC00060E0809137040E946A0160E080913904FF
:100AD0000E946A01809138048F3F19F060E00E9403
:100AE0006A018091420484FD34C063E083E394E0B2
:100AF0000E949004CBE4D6E4CE010197F1F763E0C5
:100B000083E394E00E9490042197F1F763E083E38C
:100B100094E00E94900483E592E00197F1F762E08F
:100B200083E394E00E9490048091420480620E94DA
:100B3000100584E0809343048CE00E9410050E941D
:100B4000160582E08093440486E0DF91CF910C94F7
:100B5000100580620E9410058BE496E40197F1F77E
:100B60008091420480620E94100583E592E0019723
:100B7000F1F78091420480620E941005D5CF9091D8
:100B80004604891710F08FEF890FE82FF0E0ED5C35
:100B9000FB4F848980680C94100541E00E94BD04DD
:100BA00081E090E00895FB0101900020E9F7319782
:100BB000AF01461B570BDC01ED91FC910280F381E4
:100BC000E02D09948F929F92AF92BF92EF92FF9285
:100BD0000F931F93CF93DF93CDB7DEB7A1970FB6D7
:100BE000F894DEBF0FBECDBF7C01FA01CB0119A284
:100BF000223008F42AE08E010F5D1F4F822E912CC7
:100C0000B12CA12CBF01A50194010E94720DF90124
:100C1000CA016A300CF5605DD8016E938D01232BFB
:100C2000242B252B79F790E080E0109721F0BD016F
:100C3000C7010E94D305A1960FB6F894DEBF0FBE80
:100C4000CDBFDF91CF911F910F91FF90EF90BF909B
:100C5000AF909F908F900895695CDECFCF92DF9226
:100C6000EF92FF920F931F93CF93DF936B01770F58
:100C7000EE08FF08F7FE1BC0EC016DE20E94620364
:100C80008C0144275527BA014C195D096E097F096B
:100C90002AE0CE010E94E205800F911FDF91CF91E3
:100CA0001F910F91FF90EF90DF90CF9008952AE071
:100CB000B701A601DF91CF911F910F91FF90EF90A7
:100CC000DF90CF900C94E205CF92DF92EF92FF92EB
:100CD000CF93DF936C01990FEE08FF08F7FE23C056
:100CE0006DE282E593E00E946203EC014427552700
:100CF000BA014C195D096E097F092AE082E593E08B
:100D00000E94E205C80FD91F6EE171E082E593E011
:100D10000E94D3058C0F9D1FDF91CF91FF90EF9024
:100D2000DF90CF9008952AE0B701A60182E593E015
:100D30000E94E205EC01E8CFCF93DF93BC0182E58E
:100D400093E00E94D305EC016EE171E082E593E04F
:100D50000E94D3058C0F9D1FDF91CF9108952F9294
:100D60003F924F925F926F927F928F929F92AF923B
:100D7000BF92CF92DF92EF92FF921F93CF93DF93B8
:100D8000EC016A017B01722EAB019601CB01B60129
:100D90000E942A1061E271E0811126C046015701CC
:100DA000E894B7F82FEF3FEF4FE75FE7C501B401D5
:100DB0000E942A1081110CC02FEF3FEF4FE75FE731
:100DC000C501B4010E94100E65E271E0181664F0CE
:100DD0002FEF3FEF4FE75FE4C701B6010E94680FB6
:100DE0001816B4F469E271E0CE01DF91CF911F9142
:100DF000FF90EF90DF90CF90BF90AF909F908F903B
:100E00007F906F905F904F903F902F900C94D30500
:100E10002FEF3FEF4FE75FECC701B6010E94100EC6
:100E200087FDE0CF20E030E0A901C701B6010E94B4
:100E3000100E312C212C87FF09C06DE2CE010E94DB
:100E400062031C01F7FAF094F7F8F09410E060E008
:100E500070E080E09FE3711641F020E030E040E276
:100E600051E40E94150E1F5FF6CFA70196010E9464
:100E7000A40D2B013C010E94870E4B015C012AE06E
:100E8000BC01A401CE010E94E2057C01E20CF31C2E
:100E90001123C1F1C501B4010E94B60E9B01AC0142
:100EA000C301B2010E94A30D4B015C016EE2CE01B1
:100EB0000E946203E80EF91E115020F120E030E09C
:100EC00040E251E4C501B4010E946D0F2B013C01C9
:100ED0000E94870E4B01B12CA12C2AE0B501A40180
:100EE000CE010E94E205E80EF91EC501B4010E9480
:100EF000B60E9B01AC01C301B2010E94A30D4B01D0
:100F00005C01DACFC701DF91CF911F91FF90EF9085
:100F1000DF90CF90BF90AF909F908F907F906F9019
:100F20005F904F903F902F9008950C94D3051F929F
:100F30000F920FB60F9211242F933F938F939F938D
:100F4000AF93BF9380914E0390914F03A0915003B4
:100F5000B09151033091490323E0230F2D3758F509
:100F60000196A11DB11D2093490380934E039093D8
:100F70004F03A0935003B093510380914A03909183
:100F80004B03A0914C03B0914D030196A11DB11DDF
:100F900080934A0390934B03A0934C03B0934D036B
:100FA000BF91AF919F918F913F912F910F900FBE65
:100FB0000F901F90189526E8230F0296A11DB11DD2
:100FC000D2CF1F920F920FB60F9211242F933F93FF
:100FD0004F935F936F937F938F939F93AF93BF9341
:100FE000EF93FF9382E593E00E94E703FF91EF9177
:100FF000BF91AF919F918F917F916F915F914F9131
:101000003F912F910F900FBE0F901F9018951F9238
:101010000F920FB60F9211242F938F939F93EF93FC
:10102000FF93E0916203F09163038081E091680394
:10103000F091690382FD1BC0908180916B038F5FEB
:101040008F7320916C03821741F0E0916B03F0E005
:10105000EE5AFC4F958F80936B03FF91EF919F9118
:101060008F912F910F900FBE0F901F901895808138
:10107000F4CF1F920F920FB60F9211242F933F932C
:101080004F935F936F937F938F939F93AF93BF9390
:10109000CF93DF93EF93FF9380914803C0911304A4
:1010A000D0E087FF24C010928500109284008091C8
:1010B00048038F5F8093480380914803082E000CFB
:1010C000990B8C179D0724F4809148038C30C4F150
:1010D0008091840090918500049680349C4908F4A6
:1010E0007AC08091840090918500049676C08091AA
:1010F0004803082E000C990B8C179D07C4F6E0914D
:1011000048038E2FEE0F990BFC01EE0FFF1FE80F27
:10111000F91FE151FC4F808186FFC9CFE091480360
:101120008E2FEE0F990BFC01EE0FFF1FE80FF91F3A
:10113000E151FC4F808160E08F730E946A01B7CF5C
:101140002091840030918500E09148038E2FEE0FAE
:10115000990BFC01EE0FFF1FE80FF91FE151FC4F47
:1011600081819281820F931F9093890080938800E0
:10117000E09148038E2FEE0F990BFC01EE0FFF1F3D
:10118000E80FF91FE151FC4F808186FF11C0E0910B
:1011900048038E2FEE0F990BFC01EE0FFF1FE80F97
:1011A000F91FE151FC4F808161E08F730E946A0159
:1011B000FF91EF91DF91CF91BF91AF919F918F916F
:1011C0007F916F915F914F913F912F910F900FBE43
:1011D0000F901F90189580E49CE99093890080936C
:1011E00088008FEF80934803E3CFCF93DF93109273
:1011F00055031092540388EE93E0A0E0B0E0809392
:10120000560390935703A0935803B093590384E077
:1012100091E0909353038093520385EC90E0909378
:101220005F0380935E0384EC90E09093610380936E
:10123000600380EC90E0909363038093620381EC01
:1012400090E0909365038093640382EC90E0909328
:1012500067038093660386EC90E090936903809324
:10126000680310926B0310926C0310926D0310923E
:101270006E03109236041092350486E191E090934B
:101280003404809333048DE080933704CFEFC09310
:1012900038048CE080933904DBE0D0933A048AE090
:1012A00080933B0489E080933C0488E080933D0474
:1012B00010923E0410923F04109240041092410498
:1012C0001092420481E00E941E0582E08093250472
:1012D000D0932604E2E3F1E0E491E0932704EEE109
:1012E000F1E0E491E093280480E89EE3A0E0B0E020
:1012F00080932D0490932E04A0932F04B093300478
:101300008EE0809317048FE892E4A9E9B2E4809319
:101310001C0490931D04A0931E04B0931F0480E04E
:1013200090E0A0E2B1E48093180490931904A09394
:101330001A04B0931B04809113048C30A8F491E03C
:10134000980F909313048093140490E0FC01EE0F27
:10135000FF1FE80FF91FE151FC4F88EB9BE09283E0
:101360008183DF91CF910895C0931404FACF7894CC
:1013700084B5826084BD84B5816084BD85B582609A
:1013800085BD85B5816085BD80916E00816080934B
:101390006E001092810080918100826080938100B4
:1013A00080918100816080938100809180008160C4
:1013B000809380008091B10084608093B10080911F
:1013C000B00081608093B00080917A008460809347
:1013D0007A0080917A00826080937A0080917A000E
:1013E000816080937A0080917A00806880937A008F
:1013F0001092C10082E00E941E0580E00E94BF059D
:101400006DE271E083E394E00E94950760ED77E080
:1014100080E090E00E9421020E94160561E083E0D6
:101420000E94B60161E084E00E94B60161E085E0BF
:101430000E94B601E0916203F091630382E0808331
:10144000E0915E03F0915F031082E0916003F09100
:1014500061038FEC808310926A03E0916603F09140
:10146000670386E08083E0916403F09165038081E7
:1014700080618083E0916403F091650380818860DE
:101480008083E0916403F0916503808180688083AC
:10149000E0916403F091650380818F7D808362E039
:1014A000809125040E94B6012FB7F89480914E03D5
:1014B00090914F03A0915003B09151032FBF805DD5
:1014C0009740A109B1098093290490932A04A0931D
:1014D0002B04B0932C0487E380933204809114048E
:1014E0008C3008F051C061E086E00E94B601809126
:1014F0001404282F30E0F901EE0FFF1FE20FF31F55
:10150000E151FC4F9081907C96609083109215047D
:10151000109216042CE0622F0E946411829FB00189
:10152000112430E020E0AB01420F531FFA01EE0F0F
:10153000FF1FE40FF51FE151FC4F908196FD16C08F
:101540002F5F3F4F2C30310571F781110FC0109282
:10155000800082E0809381001092850010928400C8
:10156000B19A80916F00826080936F00E0911404C3
:101570008E2F90E0FC01EE0FFF1FE80FF91FE151E5
:10158000FC4F80818064808390E080E00E94CD00E9
:10159000C0E0D0E08FE00E94E7017C016DE371E0E4
:1015A00082E593E00E949507C7010E94640680E0EF
:1015B0000E94BF0569E471E083E394E00E9495070F
:1015C000B70183E394E00E942E0684EFE81681E0E1
:1015D000F8060CF05BC061E083E00E946A0181E5DF
:1015E00091E00E949C066DE671E083E394E00E9426
:1015F000950764EF71E080E090E00E94210280E1B5
:101600000E94E7017C0160E971E082E593E00E94BD
:101610009507C7010E94640681E00E94BF0566EA43
:1016200071E083E394E00E949507B70183E394E0BF
:101630000E942E0689E5E81682E0F80684F161E052
:1016400085E00E946A018DEA91E00E949C0663EDAC
:1016500071E083E394E00E94950764EF71E080E01D
:1016600090E00E9421020E945302882341F0809161
:1016700026048C3009F477C0E8F48B30A1F1C12C3A
:10168000D12C90ECE92E9FE7F92E57C060E083E063
:101690000E946A0185E791E00E949C06AACF60E063
:1016A00085E00E946A0189ED91E00E949C0669EF45
:1016B00071E0CFCF8551823010F710912204612F55
:1016C00070E0762F662766277F7780912304682B4A
:1016D00090E080E00E94B60E2DEC3CEC4CEC5DE31B
:1016E0000E946D0F5CC06091220470E090E080E089
:1016F0000E94B60E6B017C011091230417FF0AC0F3
:10170000AC019B0160E070E080E89FEB0E94A30DBC
:101710006B017C011F70612F70E090E080E00E94FF
:10172000B80E2DEC3CEC4CEC5DE30E946D0FA70174
:1017300096010E94A40D6B017C010E945302882334
:1017400009F465C0809126048B3030F08D3080F133
:101750008551823008F4FEC0812C912C80ECA82E9B
:101760008FE7B82E43C010912204612F70E090E003
:1017700080E00E94B60E6B017C01609123046F70C3
:1017800070E090E080E00E94B80E2DEC3CEC4CEC58
:101790005DE30E946D0FA70196010E94A40D6B01ED
:1017A0007C0117FFCACFF7FAF094F7F8F094C5CF91
:1017B0006091210470E090E080E00E94B80E2DEC72
:1017C0003CEC4CEC5DE30E946D0F4B015C016091C1
:1017D000200470E090E080E00E94B80E9B01AC0114
:1017E000C501B4010E94A40D4B015C01A701960143
:1017F000C701B6010E942A10811109C0A5019401F8
:10180000C501B4010E942A10882309F4B5C080E004
:1018100092E00E949C0680E00E94BF0562E272E0B6
:1018200083E394E00E94950768EE73E080E090E027
:101830000E942102809117040E94E701BC01990FC8
:10184000880B990B0E94B80E9B01AC0160E070EC14
:101850008FE794E40E94150E20E030E040E85FE35B
:101860000E94A30D209118043091190440911A048C
:1018700050911B040E946D0F20911C0430911D0497
:1018800040911E0450911F040E94150E2EED37E367
:1018900041E350EC0E94DA0F22E434E349EE52E4D3
:1018A0000E946D0F6B017C016FEA72E082E593E0AC
:1018B0000E94950722E0B701A60182E593E00E940D
:1018C000AF0681ED92E00E949C060E94160580E022
:1018D0000E94BF0566ED72E083E394E00E949507E5
:1018E00022E0B701A60183E394E00E94AF0661ED18
:1018F00072E083E394E00E94950720E030E040E846
:101900005FE3C701B6010E94680F18160CF0AAC069
:101910008AE590E00E94CD008CED92E00E949C064A
:1019200081E00E94BF056BE073E083E394E00E94D6
:10193000950760ED77E080E090E00E94210220971B
:1019400009F428CE0E94D303882309F423CE0E94F1
:10195000000020CE60912004709121047627672733
:10196000762790E080E00E94B60E2DEC3CEC4CEC2B
:101970005DE30E946D0F38CF6DE272E082E593E087
:101980000E94950722E0B701A60182E593E00E943C
:10199000AF068BE392E00E949C0660E472E082E571
:1019A00093E00E94950722E0B501A40182E593E04F
:1019B0000E94AF068BE492E00E949C060E941605EE
:1019C00080E00E94BF056EE472E083E394E00E9431
:1019D000950722E0B701A60183E394E00E94AF06D9
:1019E00065E572E083E394E00E94950781E00E9440
:1019F000BF0560E472E083E394E00E94950722E073
:101A0000B501A40183E394E00E94AF066BE472E0A9
:101A100083E394E00E94950720E030E040EC51E43D
:101A2000C701B6010E94680F181674F461E084E0E3
:101A30000E946A0188E592E00E949C0681E00E9473
:101A4000BF056AE772E0ECCE60E084E00E946A01C4
:101A500086E892E00E949C0681E00E94BF0562EA4F
:101A600072E0DECE90E080E00E94CD0086E193E05F
:101A70000E949C0681E00E94BF056DE373E055CF94
:101A8000052E97FB1EF400940E94570D57FD07D0BA
:101A90000E94720D07FC03D04EF40C94570D509524
:101AA0004095309521953F4F4F4F5F4F089590954A
:101AB0008095709561957F4F8F4F9F4F08950E943D
:101AC000940DA59F900DB49F900DA49F800D911D26
:101AD00011240895B7FF0C945F0D0E945F0D821BC7
:101AE000930B0895A1E21A2EAA1BBB1BFD010DC08A
:101AF000AA1FBB1FEE1FFF1FA217B307E407F507BE
:101B000020F0A21BB30BE40BF50B661F771F881F99
:101B1000991F1A9469F760957095809590959B012F
:101B2000AC01BD01CF010895A29FB001B39FC001D8
:101B3000A39F700D811D1124911DB29F700D811DF9
:101B40001124911D08955058BB27AA270E94BB0D50
:101B50000C942E0F0E94200F38F00E94270F20F0C7
:101B600039F49F3F19F426F40C941D0F0EF4E09500
:101B7000E7FB0C94170FE92F0E943F0F58F3BA1799
:101B8000620773078407950720F079F4A6F50C9493
:101B9000610F0EF4E0950B2EBA2FA02D0B01B901A9
:101BA00090010C01CA01A0011124FF27591B99F0D3
:101BB000593F50F4503E68F11A16F040A22F232FDF
:101BC000342F4427585FF3CF469537952795A7952F
:101BD000F0405395C9F77EF41F16BA0B620B730BD6
:101BE000840BBAF09150A1F0FF0FBB1F661F771F47
:101BF000881FC2F70EC0BA0F621F731F841F48F4FC
:101C0000879577956795B795F7959E3F08F0B0CF84
:101C10009395880F08F09927EE0F9795879508956B
:101C20000E94F30E08F481E008950E94290E0C949E
:101C30002E0F0E94270F58F00E94200F40F029F429
:101C40005F3F29F00C94170F51110C94620F0C9404
:101C50001D0F0E943F0F68F39923B1F3552391F3B1
:101C6000951B550BBB27AA2762177307840738F00B
:101C70009F5F5F4F220F331F441FAA1FA9F335D068
:101C80000E2E3AF0E0E832D091505040E695001C1C
:101C9000CAF72BD0FE2F29D0660F771F881FBB1FD6
:101CA000261737074807AB07B0E809F0BB0B802DB4
:101CB000BF01FF2793585F4F3AF09E3F510578F0E0
:101CC0000C94170F0C94620F5F3FE4F3983ED4F32B
:101CD000869577956795B795F7959F5FC9F7880FB4
:101CE000911D9695879597F90895E1E0660F771F06
:101CF000881FBB1F621773078407BA0720F0621B97
:101D0000730B840BBA0BEE1F88F7E09508950E94C1
:101D1000470F88F09F5798F0B92F9927B751B0F027
:101D2000E1F0660F771F881F991F1AF0BA95C9F75F
:101D300014C0B13091F00E94610FB1E008950C948D
:101D4000610F672F782F8827B85F39F0B93FCCF340
:101D5000869577956795B395D9F73EF490958095DC
:101D6000709561957F4F8F4F9F4F0895E89409C0FC
:101D700097FB3EF490958095709561957F4F8F4FBE
:101D80009F4F9923A9F0F92F96E9BB279395F695D4
:101D9000879577956795B795F111F8CFFAF4BB0F52
:101DA00011F460FF1BC06F5F7F4F8F4F9F4F16C0B6
:101DB000882311F096E911C0772321F09EE8872F40
:101DC000762F05C0662371F096E8862F70E060E0FC
:101DD0002AF09A95660F771F881FDAF7880F969575
:101DE000879597F90895990F0008550FAA0BE0E819
:101DF000FEEF16161706E807F907C0F012161306CD
:101E0000E407F50798F0621B730B840B950B39F40C
:101E10000A2661F0232B242B252B21F408950A2672
:101E200009F4A140A6958FEF811D811D089597F9B2
:101E30009F6780E870E060E008959FEF80EC089570
:101E400000240A9416161706180609060895002499
:101E50000A9412161306140605060895092E039413
:101E6000000C11F4882352F0BB0F40F4BF2B11F487
:101E700060FF04C06F5F7F4F8F4F9F4F089557FDE6
:101E80009058440F551F59F05F3F71F04795880FE8
:101E900097FB991F61F09F3F79F08795089512167F
:101EA00013061406551FF2CF4695F1DF08C016162B
:101EB00017061806991FF1CF8695710561050894DC
:101EC0000895E894BB2766277727CB0197F90895F3
:101ED0000E94F30E08F48FEF08950E94800F0C9477
:101EE0002E0F0E94200F38F00E94270F20F095231C
:101EF00011F00C94170F0C941D0F11240C94620F09
:101F00000E943F0F70F3959FC1F3950F50E0551F4E
:101F1000629FF001729FBB27F00DB11D639FAA273E
:101F2000F00DB11DAA1F649F6627B00DA11D661F8D
:101F3000829F2227B00DA11D621F739FB00DA11DAE
:101F4000621F839FA00D611D221F749F3327A00D68
:101F5000611D231F849F600D211D822F762F6A2F04
:101F600011249F5750409AF0F1F088234AF0EE0F69
:101F7000FF1FBB1F661F771F881F91505040A9F796
:101F80009E3F510580F00C94170F0C94620F5F3F39
:101F9000E4F3983ED4F3869577956795B795F795D2
:101FA000E7959F5FC1F7FE2B880F911D969587954A
:101FB00097F90895FA01EE0FFF1F309621053105BC
:101FC000A1F16115710561F48038BFE39B0749F108
:101FD00068949038810561F08038BFEF9B0741F02D
:101FE00099234AF5FF3FE1053105210519F1E894F0
:101FF0000894E795D901AA2329F4AB2FBE2FF85FE7
:10200000D0F310C0FF5F70F4A695E0F7F73950F0F9
:1020100019F0FF3A38F49F779F930DD00F9007FC8B
:102020009058089546F00C941D0F60E070E080E831
:102030009FE308954FE79F775F934F933F932F93CD
:102040000E94DA102F913F914F915F910E946D0F86
:102050000C9437100E94F30E880B990B089529F405
:1020600016F00C94170F0C94610F0C941D0F0E9426
:10207000470FA8F39638A0F707F80F92E8942BE3E0
:102080003AEA48EB5FE70E94830F0F920F920F929C
:102090004DB75EB70F920E942211E8E6F0E00E9471
:1020A00069104F915F91EF91FF91E595EE1FFF1F32
:1020B00049F0FE57E0684427EE0F441FFA95E1F718
:1020C0004195550B0E949C100F9007FE0C949010A8
:1020D0000895DF93CF931F930F93FF92EF92DF92B8
:1020E0007B018C01689406C0DA2EEF010E94800FFC
:1020F000FE01E894A5912591359145915591A6F35E
:10210000EF010E94BB0DFE019701A801DA9469F767
:10211000DF90EF90FF900F911F91CF91DF91089585
:102120009B01AC0160E070E080E89FE30C94150E29
:102130000C94170F0C9456110E94470FD8F3992353
:10214000C9F3940F511DA3F39150504094F059F0EE
:10215000882332F0660F771F881F91505040C1F7D7
:102160009E3F51052CF7880F911D9695879597F9FD
:1021700008955F3FACF0983E9CF0BB27869577951D
:102180006795B79508F4B1609395C1F7BB0F58F701
:1021900011F460FFE8CF6F5F7F4F8F4F9F4FE3CF0A
:1021A0000C94620F16F00C9456110C941D0F689449
:1021B0000C94170F0E94470FA8F39923C1F3AEF3B5
:1021C000DF93CF931F930F93FF92C92FDD278823AF
:1021D0002AF02197660F771F881FDAF720E030E09A
:1021E00040E85FEB9FE3883920F0803E38F021968D
:1021F0008F770E94A40DE0E9F0E004C00E94A40DD6
:10220000EDEBF0E00E9469108B01BE01EC01FB2EAA
:102210006F5771097595771F880B990B0E94B80E3F
:1022200028E132E741E35FE30E94800FAF2D980180
:10223000AE01FF900F911F91CF91DF910E94BB0DD6
:102240000C942E0FFA01DC01AA0FBB1F9B01AC01FD
:10225000BF5728F4222733274427507820C0B7518E
:1022600090F4AB2F0024469537952795011CA39534
:10227000D2F3002071F0220F331F441FB395DAF31D
:102280000ED00C94A30D61307105A0E88A07B94601
:1022900030F49B01AC016627772788279078309629
:1022A00021F0208331834283538308959F3F31F08F
:1022B000915020F4879577956795B795880F911D74
:1022C0009695879597F90895991B79E004C0991F11
:1022D000961708F0961B881F7A95C9F78095089580
:1022E000EE0FFF1F0590F491E02D0994F894FFCFB5
:1022F000000000000904690396035604C703A50300
:10230000B90300000000CD056903770476040D0AC7
:10231000006E616E00696E66006F766600496E69D8
:102320007469616C697A696E672E2E2E004C445276
:102330002056616C75653A20004C696768743A20D4
:10234000004C4544204F4E3A204C6F77206C696713
:1023500068742064657465637465642E0020284485
:1023600061726B29004C4544204F46463A20537514
:102370006666696369656E74206C696768742E00AF
:10238000536F696C204D6F69737475726520566167
:102390006C75653A2000536F696C3A2000536F6981
:1023A0006C204D6F746F72204F4E3A2048696768F9
:1023B000204D6F697374757265204465746563742C
:1023C000656400204D3A4F4E00536F696C204D6F8D
:1023D000746F72204F46463A204D6F697374757260
:1023E00065204E6F726D616C00204D3A4F4646007D
:1023F0004661696C656420746F2072656164206653
:10240000726F6D2044485431312073656E736F7262
:102410002100444854204572726F72210054656D4A
:1024200070657261747572653A200020C2B0430015
:1024300048756D69646974793A20002025005465F7
:102440006D703A200020430054656D70204D6F740C
:102450006F72204F4E3A20486967682054656D704E
:102460002044657465637465640020542D4D6F7459
:102470006F723A4F4E0054656D70204D6F746F72DD
:10248000204F46463A2054656D70204E6F726D6144
:102490006C0020542D4D6F746F723A4F46460041C8
:1024A0006972205175616C6974792028434F32201C
:1024B000436F6E63656E74726174696F6E293A2042
:1024C000002070706D00434F323A200053657276E1
:1024D0006F204D6F746F7220526F74617465642049
:1024E000746F203930C2B03A204869676820434F82
:1024F0003220446574656374656400536572766F59
:102500003A204F4E2000536572766F204D6F746FE6
:102510007220526F746174656420746F2030C2B091
:102520003A20434F32204E6F726D616C00536572DA
:08253000766F3A204F46460089
:00000001FF
